:100000000C949B000C94C3000C94C3000C94C3008C
:100010000C94C3000C94C3000C94C3000C94C30054
:100020000C94C3000C94C3000C94CE040C944005B3
:100030000C94C3000C94C3000C94C3000C94C30034
:100040000C94C3000C94C3000C94C3000C94C30024
:100050000C94C3000C947D070C94C3000C9484048E
:100060000C94C3000C94C3000C94C3000C94C30004
:100070000C94C3000C94C3000C94C3000C94C300F4
:100080000C94C3000C94C3000C94C3000C94C300E4
:100090000C94C3000C94C3000C94C3000C94C300D4
:1000A0000C94C3000C94C3000C94C300080B000212
:1000B0000202010009040000010202000005240000
:1000C0001001052401010104240206052406000193
:1000D0000705810310004009040100020A00000026
:1000E00007050202400000070583024000000403E8
:1000F000090441726475696E6F204C4C4300417273
:100100006475696E6F204C656F6E6172646F00126A
:10011000010002000000404123368000010102037B
:100120000112010002EF020140412336800001016B
:1001300002030100380911241FBECFEFDAE0DEBF51
:10014000CDBF11E0A0E0B1E0E4EBF2E102C0059028
:100150000D92A43EB107D9F727E0A4EEB1E001C0AB
:100160001D92A43FB207E1F710E0CBE9D0E004C054
:100170002197FE010E944D09CA39D107C9F70E9493
:10018000F3070C9458090C940000FC0180919F0720
:10019000811103C08FEF9FEF08959FB7F89482E01D
:1001A0008093E9002091F20030E01216130614F457
:1001B00021E030E02115310559F0289884E680933C
:1001C0009E078091F10080838091F200882319F0CE
:1001D0009FBFC90108958BE68093E800F9CF809115
:1001E000960781110DC082E08093920784E080938E
:1001F0009307109295071092940781E080939607D9
:1002000082E997E008953FB7F89480918E07909126
:100210008F07A0919007B091910726B5A89B05C0C4
:100220002F3F19F00196A11DB11D3FBFBA2FA92F75
:10023000982F8827820F911DA11DB11DBC01CD01F2
:1002400042E0660F771F881F991F4A95D1F70895DE
:100250008F929F92AF92BF92CF92DF92EF92FF92D6
:100260006B017C010E9403014B015C01C114D104AC
:10027000E104F104F1F00E940301DC01CB018819D3
:100280009909AA09BB09883E9340A105B10570F3FD
:1002900021E0C21AD108E108F10888EE880E83E057
:1002A000981EA11CB11CC114D104E104F10419F77A
:1002B000DDCFFF90EF90DF90CF90BF90AF909F90F9
:1002C0008F9008957894C201F101099540918307B8
:1002D000509184072091810730918207421753077C
:1002E000B4F49091E8009570E1F39091E80092FDEC
:1002F00019C08093F1008091830790918407019643
:100300008F739927892B19F48EEF8093E8008091E1
:1003100083079091840701969093840780938307C5
:1003200081E0089580E00895CF92DF92EF92FF92EE
:100330000F931F93CF93DF931F92CDB7DEB7182F84
:10034000062FE42E862F880F8E5F99830E94660108
:1003500083E00E946601F12EC12E9981D92E8C2D49
:100360008F19801798F4F601E7FE02C0849101C04E
:1003700080810E946601182F80E00E94660181231F
:10038000FFEFCF1ADF0A8111EACF01C081E00F90A1
:10039000DF91CF911F910F91FF90EF90DF90CF9061
:1003A0000895DF92EF92FF920F931F93CF93DF9305
:1003B000D82E8A017B01E40EF51EEB01CE15DF0578
:1003C00071F0D7FE03C0FE01849101C088810E94B4
:1003D000660121968111F2CF8FEF9FEF01C0C80116
:1003E000DF91CF911F910F91FF90EF90DF900895D3
:1003F0000F931F93CF93DF931F92CDB7DEB782E0A9
:10040000898342E450E06CEA70E080E80E94D10108
:100410000E94EF00DC0112960D911C9113970115BB
:10042000110569F0D801ED91FC910280F381E02D76
:10043000BE016F5F7F4FC801099597FF07C0898193
:100440000F90DF91CF911F910F910895F8010085D2
:100450001185E5CF615030F02091F100FC0120833F
:100460000196F8CF289884E680939E070895CF924E
:10047000DF92EF92FF920F931F93CF93DF936C0164
:100480007A018B01C0E0D0E0CE15DF0589F0D801FC
:100490006D918D01D601ED91FC910190F081E02DDF
:1004A000C6010995892B11F47E0102C02196ECCF7B
:1004B000C701DF91CF911F910F91FF90EF90DF90D7
:1004C000CF9008958F929F92AF92BF92CF92DF927A
:1004D000EF92FF920F931F93CF93DF935C016B0119
:1004E0008A0180910B01882309F45EC080919F07E7
:1004F000882309F459C08091870780FF05C0809147
:10050000E00082608093E000E8018AEFF82E93E03B
:10051000E92E2FE3822E3AE3932E209709F43DC073
:100520008FB7F894E092E9009091E80095FF06C03B
:100530009091F200282D291B922F01C090E08FBFCF
:1005400091110AC0FA94FF2079F161E070E080E037
:1005500090E00E942801E1CF292F30E0C217D30795
:100560000CF49C2F8FB7F894E092E9002091E800FA
:1005700025FF11C0292F30E0C21BD30BF60191508B
:1005800020F041914093F100FACFC20ED31E90911A
:10059000E80095FF13C08FBFC0CF5D9884E68093BD
:1005A00085071016110644F081E090E0F501938371
:1005B000828380E090E005C0C80103C09092E8000B
:1005C000EACFDF91CF911F910F91FF90EF90DF90D5
:1005D000CF90BF90AF909F908F900895CF93DF936F
:1005E0001F92CDB7DEB76983DC01ED91FC910280EB
:1005F000F381E02D41E050E0BE016F5F7F4F099530
:100600000F90DF91CF91089583E08093E90080916E
:10061000F200882319F08AE38093E8000895CF93CD
:10062000DF931F92CDB7DEB7FC018485958597FDDA
:1006300005C02FEF3FEF358724870BC0CE01019611
:100640000E94C500019719F4898190E002C08FEFE4
:100650009FEF0F90DF91CF9108950F931F93CF934A
:10066000DF931F92CDB7DEB78C01FC0184859585A1
:1006700097FF0EC0CE0101960E94C500019719F4A4
:10068000298130E002C02FEF3FEFF8013587248742
:10069000F801848595850F90DF91CF911F910F917F
:1006A0000895FC018485958597FD0BC09FB7F8944C
:1006B00082E08093E9008091F2009FBF90E0019674
:1006C00008959FB7F89482E08093E9008091F2004A
:1006D0009FBF90E008952F923F924F925F926F924A
:1006E0007F928F929F92AF92BF92CF92DF92EF92C2
:1006F000FF920F931F93CF93DF93FB010DB6008200
:100700000EB60182FC0100800DBE01800EBEDF919D
:10071000CF911F910F91FF90EF90DF90CF90BF90FE
:10072000AF909F908F907F906F905F904F903F9091
:100730002F900895F89460910C0170910D0121E0C3
:10074000FB0122839683858320911201309113014E
:100750002E5F3F4FC9010297295F3F4FF90137973D
:1007600040814111F7CF90930F0180930E01909338
:100770000D0180930C010E946B037894089525E588
:100780008617970720F4FC012193CF01F9CF089534
:1007900080917F07882329F085E090E00E949A03EA
:1007A000F7CF81E080937F070895BC01009791F017
:1007B000FC0101900020E9F73197AF01481B590B6C
:1007C000E091A007F091A1070280F381E02D80EA7B
:1007D00097E0099480E090E00895CF93DF930E9422
:1007E000D503EC018BE591E00E94D5038C0F9D1F92
:1007F000DF91CF9108950E94C80382E690E00E94A5
:100800009A038EE591E00E94ED0364E670E080E0DB
:1008100090E00E9428018DE691E00E94ED0364E6DD
:1008200070E080E090E00E94280182E690E00E9463
:100830009A0386E791E00E94ED0382E690E00E9431
:100840009A0310927F0782E690E00E949A03D3CF2A
:100850000E94C80382E690E00E949A0387E891E034
:100860000E94ED0364E670E080E090E00E942801C1
:1008700086E991E00E94ED0364E670E080E090E09C
:100880000E94280182E690E00E949A038FE991E09D
:100890000E94ED0382E690E00E949A0310927F0787
:1008A00082E690E00E949A03D3CF0E94C80382E6BA
:1008B00090E00E949A0380EB91E00E94ED0364E6D1
:1008C00070E080E090E00E9428018FEB91E00E94B0
:1008D000ED0364E670E080E090E00E94280182E68B
:1008E00090E00E949A0388EC91E00E94ED0382E67A
:1008F00090E00E949A0310927F0782E690E00E94A7
:100900009A03D3CF0E9453091F920F920FB60F92F2
:1009100011242F933F938F939F93AF93BF93809115
:100920008A0790918B07A0918C07B0918D07309129
:10093000890723E0230F2D3720F40196A11DB11D57
:1009400005C026E8230F0296A11DB11D209389073B
:1009500080938A0790938B07A0938C07B0938D07A1
:1009600080918E0790918F07A0919007B091910789
:100970000196A11DB11D80938E0790938F07A093C0
:100980009007B0939107BF91AF919F918F913F9145
:100990002F910F900FBE0F901F9018951F920F92DE
:1009A0000FB60F9211248F939F938091E100909145
:1009B000E100937F9093E10083FF0FC01092E90064
:1009C00091E09093EB001092EC0092E39093ED0095
:1009D00010929F0798E09093F00082FF20C093E070
:1009E0009093E9009091F200992319F09AE3909383
:1009F000E80090918507992339F0909185079150EF
:100A000090938507992389F190919E07992339F056
:100A100090919E07915090939E07992341F184FFF6
:100A200010C08091E2008E7E81608093E200809110
:100A3000E1008F7E8093E100809187078E7E806148
:100A400011C080FF16C08091E2008E7E806180938D
:100A5000E2008091E1008E7E8093E1008091870723
:100A60008E7E81608093870704C05D9ACDCF289ADF
:100A7000D6CF9F918F910F900FBE0F901F9018951A
:100A80001F920F920FB60F921124CF92DF92EF9226
:100A9000FF920F931F932F933F934F935F936F9307
:100AA0007F938F939F93AF93BF93EF93FF93CF93D6
:100AB000DF93CDB7DEB76C97DEBFCDBF1092E900F4
:100AC0008091E80083FFFAC168E0CE0145960E945C
:100AD0002A0282EF8093E8008D8987FF05C09091FC
:100AE000E80090FFFCCF03C09EEF9093E800982FA2
:100AF000907609F0C6C09E892F89188D91110CC07F
:100B0000803829F4809188078093F10002C0109208
:100B1000F1001092F10047C1422F50E0512B91306B
:100B200051F4811140C14130510509F03CC180911F
:100B300088078D7F0BC0933061F4811134C141303F
:100B4000510509F030C18091880782608093880741
:100B50002AC1953041F48091E80080FFFCCF2068E5
:100B60002093E30020C1963009F05FC0EB8CFC8C31
:100B70001092E9001092840710928307123091F5C9
:100B800010928207109281070E94F80199E0BE013D
:100B90006F5F7F4FDB01E92F1D92EA95E9F799839B
:100BA0001A8391E09E8390EA98879AEF9987209123
:100BB000830730918407275F3F4F3C832B838D83CE
:100BC0001092E9001092840710928307F092820736
:100BD000E092810749E050E080E00E94D1010E944C
:100BE000F801E1C0F0928207E09281070E94EF00D5
:100BF000DC011296ED90FC901397E114F10409F4D6
:100C0000C0C0D701ED91FC910480F581E02DBE01BB
:100C10006B5E7F4FC7010995009719F00CF0C3C0B8
:100C2000C6C0F701E084F184E8CF973009F4BFC073
:100C3000983021F481E08093F100B5C0993009F03B
:100C4000B2C0837009F0B3C0EDE2F1E081E021E0D1
:100C500036E39081992361F08093E9002093EB00C3
:100C600091919093EC003093ED008F5F873089F77E
:100C70008EE78093EA001092EA008F8980939F07A5
:100C800092C08B8D9C8D1092E90010928407109277
:100C900083079093820780938107898D811156C0C5
:100CA0008E899D89913A59F4813209F080C047E0DC
:100CB00050E064E071E080E00E94D10174C09132A4
:100CC00009F075C0833289F4888D90E0982F8827C9
:100CD0002F89822BA0E0B0E0809300019093010166
:100CE000A0930201B09303015EC0803269F4809149
:100CF000E80082FFFCCF67E084E091E00E942A02D6
:100D00008BEF8093E80006C0823209F04CC08F89D7
:100D100080930B0180918607882319F0EEEFFAE0AB
:100D200002C0E0E0F8E08091040190910501A091FB
:100D30000601B0910701803B9440A105B10509F07F
:100D400088C080910B0180FFA0C083C00E94EF008B
:100D5000DC0112960D911C9113970115110539F1C3
:100D6000D801ED91FC910190F081E02DBE016B5E08
:100D70007F4FC8010995811116C0F80100851185C2
:100D8000ECCF1130C1F0133091F48F89882309F42E
:100D900055C08230E9F440E860E18EEF90E00E94B7
:100DA0009401882321F08EEF8093E80087C081E2D0
:100DB0008093EB0083C08B8D9C8D089711F410936A
:100DC000800780918007811136C06FE071E038C0E4
:100DD000813029F440E86BE082EF90E0E0CF83308F
:100DE00031F70E94EF00DC011296ED90FC90139712
:100DF0008E010F5F1F4F6801E114F10479F0D701F4
:100E0000ED91FC910680F781E02DB801C7010995AD
:100E1000080F111DF701E084F184EECFD8011C9278
:100E2000F60101900020E9F73197BF016C197D09A7
:100E300040E0C601B4CF61E271E002C06EEE70E046
:100E40006115710509F4B3CFFB01449150E080E8CE
:100E500033CF0FB6F894A895809160008861809395
:100E60006000109260000FBEA895EE3F2AE0F207E6
:100E700039F08091FE0A9091FF0A9183808393CF8D
:100E80001092FF0A1092FE0A8ECFEE3F8AE0F8071A
:100E900031F0808191819093FF0A8093FE0A87E769
:100EA00097E7918380839BE088E10FB6F894A8953B
:100EB000809360000FBE9093600075CF6C960FB664
:100EC000F894DEBF0FBECDBFDF91CF91FF91EF91C0
:100ED000BF91AF919F918F917F916F915F914F9152
:100EE0003F912F911F910F91FF90EF90DF90CF9046
:100EF0000F900FBE0F901F9018951F920F920FB674
:100F00000F9211242F933F934F935F936F937F938F
:100F10008F939F93AF93BF93CF93DF93EF93FF9301
:100F2000E0911201F0911301809110019091110153
:100F30000196909311018093100120910E01309140
:100F40000F014091140150911501DF0112966FEFCE
:100F50007FEF85819681892B11F4C9011AC08581A3
:100F60009681019796838583892BB9F78C9183307D
:100F700039F4C381D48188819981019699838883CA
:100F8000748363831C9216821582E217F30728F795
:100F9000CF01379617969C01E417F507D0F290938E
:100FA0000F0180930E0160910C0170910D01861765
:100FB000970731F090930D0180930C010E946B0311
:100FC000FF91EF91DF91CF91BF91AF919F918F9161
:100FD0007F916F915F914F913F912F910F900FBE35
:100FE0000F901F901895CF93DF9300D0CDB7DEB749
:100FF000789484B5826084BD84B5816084BD85B5F4
:10100000826085BD85B5816085BD80916E008160FF
:1010100080936E00109281008091810082608093A5
:1010200081008091810081608093810080918000A7
:101030008160809380008091910082608093910014
:1010400080919100816080939100809190008160F7
:10105000809390008091C10084608093C100809152
:10106000C10082608093C1008091C1008160809343
:10107000C1008091C30081608093C3008091C00053
:1010800082608093C0008091C20081608093C20022
:1010900080917A00846080937A0080917A008260E7
:1010A00080937A0080917A00816080937A008091A9
:1010B0007A00806880937A0010929F0710928807C8
:1010C000109287078091D70081608093D70080EAD3
:1010D0008093D80089B5806189BD89B5826089BD5A
:1010E00009B400FEFDCF61E070E080E090E00E9476
:1010F00028018091D8008F7C80618093D8008091F6
:10110000E000807F8093E0008091E1008E7E8093FC
:10111000E1008DE08093E200559A209AEEEFFFE720
:10112000859194918B3F9C4D19F481E080938607C3
:101130008FEF9FEF9093AD078093AC0768EE73E05D
:1011400080E090E00E94280189ED91E00E94ED038B
:1011500083E391E09A838983E981FA81868197818B
:10116000009751F060857185680F791F0E94BF0359
:1011700089819A810A96EECF8091F0079091F107CC
:10118000009721F48091180190911901BE016F50D0
:1011900071090E94BF03F89480E887BD80916E00BA
:1011A000826080936E008091120190911301609192
:1011B00014017091150122E631E0432FFC0153E345
:1011C000C52E51E0D52E8901E617F707F0F51282FA
:1011D00016821582D60118962D913C9119972551AA
:1011E00031091696ED90FC9017972E0D3F1D318317
:1011F000208312965C91D90152965C9320813181B3
:10120000D60113965C91D90151965C93208131816E
:10121000D60114965C91D90150965C93208131815E
:10122000D60115965C91D9011F965C93208131817E
:10123000D90153964C9320813181D90154960C9356
:101240003796BAE0CB0ED11CBFCF80930E0190939E
:101250000F0180930C0190930D010E946B03789411
:1012600000E010E001151105E9F30E940000FACF3B
:10127000E0EAF7E01382128288EE93E0A0E0B0E0AB
:1012800084839583A683B78380E291E091838083F2
:101290008FEF9FEF958784870895EE0FFF1F0590CE
:1012A000F491E02D099481E090E0F8940C945809B1
:0412B000F894FFCFE0
:1012B400FFFFFFFF00E1000000000000000000004D
:1012C4000000630778070000F407800000000000B6
:1012D400EE02620251030F032D03040300C1808157
:1012E4000000000000550400008E05D50100002810
:1012F400040000B903D5010000FB030000E401D59C
:1013040001DF0100000000000000000D0A00426C33
:101314006F636B2074687265616420330054687273
:1013240065616420330052656C656173652074687F
:1013340072656164203300426C6F636B2074687261
:101344006561642032005468726561642032005221
:10135400656C656173652074687265616420320030
:10136400426C6F636B207468726561642031005451
:10137400687265616420310052656C656173652033
:101384007468726561642031005374617274006919
:04139400646C650020
:00000001FF
